:100000000C942A000C943C000C943C000C943C0092
:100010000C943C000C943C000C943C000C943C0070
:100020000C943C000C943C000C943C000C943C0060
:100030000C943C000C943C000C943C000C943C0050
:100040000C943C000C943C000C943C000C943C0040
:100050000C943C0011241FBECFE5D8E0DEBFCDBF1D
:1000600020E0A0E6B0E001C01D92A136B207E1F7A2
:100070000E9446000C946E000C9400005F9BFECF23
:100080008CB108955D9BFECF8CB90895D09A10BCB9
:1000900085E089B988E98AB98EE080BDC1E00E9417
:1000A0003E0080936000813361F48BB38C278BBB5F
:1000B0002FE38DE093E0215080409040E1F700C0B5
:1000C000000081E30E9442002FE986E891E0215080
:1000D00080409040E1F700C00000E1CFF894FFCFEE
:00000001FF
