S015000054494D455265786572636973652E7372656336
S11300000C942A000C9434000C9434000C943400A6
S11300100C9434000C9434000C9434000C9434008C
S11300200C9434000C9434000C9434000C9434007C
S11300300C9434000C9434000C9434000C9434006C
S11300400C9434000C9434000C9434000C9434005C
S11300500C94340011241FBECFE5D8E0DEBFCDBF21
S11300600E9436000C944C000C940000D09A8FEC43
S113007093E09BBD8ABD1DBC1CBC85E08EBD91E098
S113008008B604FEFDCF8BB389278BBB1DBC1CBCFB
S10F009088B7806188BFF4CFF894FFCFDC
S9030000FC
