S01500006661737470776D74696D6572302E73726563BC
S11300000C942A000C943F000C943F000C943F0085
S11300100C943F000C943F000C943F000C943F0060
S11300200C943F000C943F000C943F000C945A0035
S11300300C943F000C943F000C943F000C943F0040
S11300400C943F000C943F000C943F000C943F0030
S11300500C943F0011241FBECFE5D8E0DEBFCDBF16
S113006010E0A0E6B0E0E2E5F1E002C005900D92F8
S1130070A236B107D9F70E9455000C94A7000C943E
S1130080000099E693BF2FEF829FC001112464E61C
S113009070E00E947F00962F6CBF08B600FEFDCF73
S11300A09CBF88B7816088BFF8CFBB9A80916000FD
S11300B00E9441001F920F920FB60F9211242F93AA
S11300C05F936F937F938F939F93AF93BF9380912D
S11300D060002FEF829FC001112464E670E00E944B
S11300E07F006CBFBF91AF919F918F917F916F9172
S11300F05F912F910F900FBE0F901F90189597FB53
S1130100072E16F4009407D077FD09D00E949300BF
S113011007FC05D03EF4909581959F4F0895709506
S113012061957F4F0895AA1BBB1B51E107C0AA1F0D
S1130130BB1FA617B70710F0A61BB70B881F991F84
S11301405A95A9F780959095BC01CD010895F8942E
S1050150FFCFDB
S1050152320075
S9030000FC
