S02000007068617365636F72726563746D6F746F72636F6E74726F6C2E73726563CF
S11300000C942A000C9447000C9447000C9447006D
S11300100C9447000C9447000C9447000C94470040
S11300200C9447000C9488000C9447000C944700EF
S11300300C9447000C9447000C9447000C94470020
S11300400C9447000C9447000C9447000C94470010
S11300500C94470011241FBECFE5D8E0DEBFCDBF0E
S113006010E0A0E6B0E0E8EEF1E002C005900D92E9
S1130070A436B107D9F720E0A4E6B0E001C01D9290
S1130080A636B207E1F70E9485000C94F2000C94A6
S113009000008FB580688FBD8EB581618EBD2091C3
S11300A0620030916300220F331F40E050E060E4AF
S11300B072E48FE090E00E94C10037BD26BD86B592
S11300C097B59093650080936400409164005091CB
S11300D065008091600090916100489F9001499F64
S11300E0300D589F300D1124369527953695279558
S11300F0ABE7B4E10E94E300969587959BBD8ABD6A
S113010088B7806188BF88B7E0CF8D9A0E94490084
S11301101F920F920FB60F9211242F933F934F9378
S11301205F936F937F938F939F93AF93BF9340910C
S11301306400509165008091600090916100489F37
S11301409001499F300D589F300D11243695279505
S113015036952795ABE7B4E10E94E3009695879521
S11301609BBD8ABDBF91AF919F918F917F916F91FC
S11301705F914F913F912F910F900FBE0F901F9061
S11301801895A1E21A2EAA1BBB1BFD010DC0AA1FC4
S1130190BB1FEE1FFF1FA217B307E407F50720F0EC
S11301A0A21BB30BE40BF50B661F771F881F991F67
S11301B01A9469F760957095809590959B01AC01B0
S11301C0BD01CF010895A29FB001B39FC001A39FB9
S11301D0700D811D1124911DB29F700D811D11247C
S10B01E0911D0895F894FFCF6E
S10701E81400401F9C
S9030000FC
