S00F0000636F756E7465722E7372656315
S11300000C942A000C9434000C9434000C943400A6
S11300100C9434000C9434000C9434000C9434008C
S11300200C9434000C9434000C9434000C9434007C
S11300300C9434000C9434000C9434000C9434006C
S11300400C9434000C9434000C9434000C9434005C
S11300500C94340011241FBECFE5D8E0DEBFCDBF21
S11300600E9436000C9445000C940000D09AB89875
S1130070C09A12BE86E083BF91E082B78630E8F36F
S11100808BB389278BBB12BEF8CFF894FFCF49
S9030000FC
