S019000065787465726E616C696E746572727570742E73726563BB
S11300000C942A000C9456000C943C000C943C0074
S11300100C943C000C943C000C943C000C943C006C
S11300200C943C000C943C000C943C000C943C005C
S11300300C943C000C943C000C943C000C943C004C
S11300400C943C000C943C000C943C000C943C003C
S11300500C943C0011241FBECFE5D8E0DEBFCDBF19
S113006020E0A0E6B0E001C01D92A236B207E1F79D
S11300700E943E000C946D000C940000D09A8A9863
S1130080929A8BB780648BBF83E085BF789421E01C
S113009080916000909161000497D0F38BB3822724
S11300A08BBB1092610010926000F2CF1F920F92EE
S11300B00FB60F9211248F939F93809160009091BB
S11300C06100019690936100809360009F918F91ED
S11100D00F900FBE0F901F901895F894FFCF5D
S9030000FC
