:100000000C942A000C9434000C9434000C943400AA
:100010000C9434000C9434000C9434000C94340090
:100020000C9434000C9434000C9434000C94340080
:100030000C9434000C9434000C9434000C94340070
:100040000C9434000C9434000C9434000C94340060
:100050000C94340011241FBECFE5D8E0DEBFCDBF25
:100060000E944E000C9489000C9400001DBC1CBC26
:100070009C01A0EDB3E00E947A0028EE33E040E05E
:1000800050E00E9458003BBD2ABD85E08EBD08B6F9
:1000900004FEFDCF88B7806188BF0895D09AC1E083
:1000A0008BB38C278BBB88EE93E00E943600F8CF91
:1000B000A1E21A2EAA1BBB1BFD010DC0AA1FBB1F6C
:1000C000EE1FFF1FA217B307E407F50720F0A21BDE
:1000D000B30BE40BF50B661F771F881F991F1A944B
:1000E00069F760957095809590959B01AC01BD0175
:1000F000CF010895A29FB001B39FC001A39F700DCF
:10010000811D1124911DB29F700D811D1124911D1F
:060110000895F894FFCFF2
:00000001FF
