:100000000C942A000C9434000C9434000C943400AA
:100010000C9434000C9434000C9434000C94340090
:100020000C9434000C944A000C9434000C9434006A
:100030000C9434000C9434000C9434000C94340070
:100040000C9434000C9434000C9434000C94340060
:100050000C94340011241FBECFE5D8E0DEBFCDBF25
:100060000E9441000C9460000C94000080E39CEF1F
:100070009DBD8CBD85E08EBD89B7846089BF7894B5
:100080000895D09AD19AD89AD99884E690E00E949F
:100090003600FFCF1F920F920FB60F9211248F934D
:1000A0009F939BB382E089278BBB80E39CEF9DBD30
:1000B0008CBD9F918F910F900FBE0F901F90189540
:0400C000F894FFCFE2
:00000001FF
